{
  "contractName": "Payroll",
  "abi": [
    {
      "constant": true,
      "inputs": [
        {
          "name": "",
          "type": "address"
        },
        {
          "name": "",
          "type": "uint256"
        }
      ],
      "name": "distributions",
      "outputs": [
        {
          "name": "",
          "type": "uint256"
        }
      ],
      "payable": false,
      "stateMutability": "view",
      "type": "function"
    },
    {
      "constant": true,
      "inputs": [
        {
          "name": "",
          "type": "uint256"
        }
      ],
      "name": "employees",
      "outputs": [
        {
          "name": "accountAddress",
          "type": "address"
        },
        {
          "name": "yearlyEURSalary",
          "type": "uint256"
        }
      ],
      "payable": false,
      "stateMutability": "view",
      "type": "function"
    },
    {
      "constant": true,
      "inputs": [
        {
          "name": "",
          "type": "uint256"
        }
      ],
      "name": "tokens",
      "outputs": [
        {
          "name": "",
          "type": "address"
        }
      ],
      "payable": false,
      "stateMutability": "view",
      "type": "function"
    },
    {
      "constant": true,
      "inputs": [
        {
          "name": "",
          "type": "address"
        }
      ],
      "name": "lastPayday",
      "outputs": [
        {
          "name": "",
          "type": "uint256"
        }
      ],
      "payable": false,
      "stateMutability": "view",
      "type": "function"
    },
    {
      "constant": true,
      "inputs": [
        {
          "name": "",
          "type": "address"
        }
      ],
      "name": "employeeAddressToId",
      "outputs": [
        {
          "name": "",
          "type": "uint256"
        }
      ],
      "payable": false,
      "stateMutability": "view",
      "type": "function"
    },
    {
      "constant": true,
      "inputs": [
        {
          "name": "",
          "type": "address"
        }
      ],
      "name": "EURExchangeRates",
      "outputs": [
        {
          "name": "",
          "type": "uint256"
        }
      ],
      "payable": false,
      "stateMutability": "view",
      "type": "function"
    },
    {
      "constant": true,
      "inputs": [
        {
          "name": "",
          "type": "address"
        }
      ],
      "name": "lastAllocationUpdate",
      "outputs": [
        {
          "name": "",
          "type": "uint256"
        }
      ],
      "payable": false,
      "stateMutability": "view",
      "type": "function"
    },
    {
      "constant": true,
      "inputs": [
        {
          "name": "",
          "type": "address"
        },
        {
          "name": "",
          "type": "uint256"
        }
      ],
      "name": "distributionsTokens",
      "outputs": [
        {
          "name": "",
          "type": "address"
        }
      ],
      "payable": false,
      "stateMutability": "view",
      "type": "function"
    },
    {
      "constant": true,
      "inputs": [],
      "name": "oracle",
      "outputs": [
        {
          "name": "",
          "type": "address"
        }
      ],
      "payable": false,
      "stateMutability": "view",
      "type": "function"
    },
    {
      "constant": true,
      "inputs": [],
      "name": "owner",
      "outputs": [
        {
          "name": "",
          "type": "address"
        }
      ],
      "payable": false,
      "stateMutability": "view",
      "type": "function"
    },
    {
      "constant": true,
      "inputs": [
        {
          "name": "",
          "type": "address"
        },
        {
          "name": "",
          "type": "address"
        }
      ],
      "name": "distributionsMapping",
      "outputs": [
        {
          "name": "",
          "type": "uint256"
        }
      ],
      "payable": false,
      "stateMutability": "view",
      "type": "function"
    },
    {
      "constant": true,
      "inputs": [
        {
          "name": "",
          "type": "address"
        }
      ],
      "name": "tokenDeposited",
      "outputs": [
        {
          "name": "",
          "type": "bool"
        }
      ],
      "payable": false,
      "stateMutability": "view",
      "type": "function"
    },
    {
      "inputs": [],
      "payable": false,
      "stateMutability": "nonpayable",
      "type": "constructor"
    },
    {
      "anonymous": false,
      "inputs": [
        {
          "indexed": false,
          "name": "oracle",
          "type": "address"
        }
      ],
      "name": "OracleUpdated",
      "type": "event"
    },
    {
      "anonymous": false,
      "inputs": [
        {
          "indexed": false,
          "name": "accountAddress",
          "type": "address"
        },
        {
          "indexed": false,
          "name": "allowedTokens",
          "type": "address[]"
        },
        {
          "indexed": false,
          "name": "initialYearlyEURSalary",
          "type": "uint256"
        }
      ],
      "name": "EmployeeAdded",
      "type": "event"
    },
    {
      "anonymous": false,
      "inputs": [
        {
          "indexed": false,
          "name": "employeeId",
          "type": "uint256"
        },
        {
          "indexed": false,
          "name": "salary",
          "type": "uint256"
        }
      ],
      "name": "SalaryUpdated",
      "type": "event"
    },
    {
      "anonymous": false,
      "inputs": [
        {
          "indexed": false,
          "name": "employeeId",
          "type": "uint256"
        }
      ],
      "name": "EmployeeRemoved",
      "type": "event"
    },
    {
      "anonymous": false,
      "inputs": [],
      "name": "FundsDrained",
      "type": "event"
    },
    {
      "anonymous": false,
      "inputs": [
        {
          "indexed": false,
          "name": "amount",
          "type": "uint256"
        }
      ],
      "name": "FundsAdded",
      "type": "event"
    },
    {
      "anonymous": false,
      "inputs": [
        {
          "indexed": false,
          "name": "token",
          "type": "address"
        },
        {
          "indexed": false,
          "name": "amount",
          "type": "uint256"
        }
      ],
      "name": "TokenFundsAdded",
      "type": "event"
    },
    {
      "anonymous": false,
      "inputs": [
        {
          "indexed": false,
          "name": "employeeId",
          "type": "uint256"
        },
        {
          "indexed": false,
          "name": "tokens",
          "type": "address[]"
        }
      ],
      "name": "EmployeeAllowedTokensUpdated",
      "type": "event"
    },
    {
      "anonymous": false,
      "inputs": [
        {
          "indexed": false,
          "name": "tokens",
          "type": "address[]"
        }
      ],
      "name": "AllEmployeeAllowedTokensUpdated",
      "type": "event"
    },
    {
      "anonymous": false,
      "inputs": [
        {
          "indexed": false,
          "name": "user",
          "type": "address"
        },
        {
          "indexed": false,
          "name": "tokens",
          "type": "address[]"
        },
        {
          "indexed": false,
          "name": "percentages",
          "type": "uint256[]"
        }
      ],
      "name": "AllocationUpdated",
      "type": "event"
    },
    {
      "anonymous": false,
      "inputs": [
        {
          "indexed": false,
          "name": "user",
          "type": "address"
        },
        {
          "indexed": false,
          "name": "tokens",
          "type": "address[]"
        },
        {
          "indexed": false,
          "name": "amounts",
          "type": "uint256[]"
        }
      ],
      "name": "Payday",
      "type": "event"
    },
    {
      "anonymous": false,
      "inputs": [
        {
          "indexed": false,
          "name": "tokens",
          "type": "address[]"
        },
        {
          "indexed": false,
          "name": "rates",
          "type": "uint256[]"
        }
      ],
      "name": "ExchangeRatesUpdated",
      "type": "event"
    },
    {
      "anonymous": false,
      "inputs": [
        {
          "indexed": false,
          "name": "token",
          "type": "address"
        },
        {
          "indexed": false,
          "name": "rate",
          "type": "uint256"
        }
      ],
      "name": "ExchangeRateUpdated",
      "type": "event"
    },
    {
      "constant": false,
      "inputs": [
        {
          "name": "newOracle",
          "type": "address"
        }
      ],
      "name": "setOracle",
      "outputs": [],
      "payable": false,
      "stateMutability": "nonpayable",
      "type": "function"
    },
    {
      "constant": false,
      "inputs": [
        {
          "name": "accountAddress",
          "type": "address"
        },
        {
          "name": "allowedTokens",
          "type": "address[]"
        },
        {
          "name": "initialYearlyEURSalary",
          "type": "uint256"
        }
      ],
      "name": "addEmployee",
      "outputs": [],
      "payable": false,
      "stateMutability": "nonpayable",
      "type": "function"
    },
    {
      "constant": false,
      "inputs": [
        {
          "name": "employeeId",
          "type": "uint256"
        },
        {
          "name": "yearlyEURSalary",
          "type": "uint256"
        }
      ],
      "name": "setEmployeeSalary",
      "outputs": [],
      "payable": false,
      "stateMutability": "nonpayable",
      "type": "function"
    },
    {
      "constant": false,
      "inputs": [
        {
          "name": "employeeId",
          "type": "uint256"
        },
        {
          "name": "allowedTokens",
          "type": "address[]"
        }
      ],
      "name": "setEmployeeAllowedTokens",
      "outputs": [],
      "payable": false,
      "stateMutability": "nonpayable",
      "type": "function"
    },
    {
      "constant": false,
      "inputs": [
        {
          "name": "allowedTokens",
          "type": "address[]"
        }
      ],
      "name": "setEmployeeAllowedTokensForAll",
      "outputs": [],
      "payable": false,
      "stateMutability": "nonpayable",
      "type": "function"
    },
    {
      "constant": false,
      "inputs": [],
      "name": "setEmployeeAllowedTokensToDeposited",
      "outputs": [],
      "payable": false,
      "stateMutability": "nonpayable",
      "type": "function"
    },
    {
      "constant": false,
      "inputs": [
        {
          "name": "employeeId",
          "type": "uint256"
        }
      ],
      "name": "removeEmployee",
      "outputs": [],
      "payable": false,
      "stateMutability": "nonpayable",
      "type": "function"
    },
    {
      "constant": false,
      "inputs": [],
      "name": "addFunds",
      "outputs": [],
      "payable": true,
      "stateMutability": "payable",
      "type": "function"
    },
    {
      "constant": false,
      "inputs": [
        {
          "name": "token",
          "type": "address"
        },
        {
          "name": "amount",
          "type": "uint256"
        }
      ],
      "name": "addTokenFunds",
      "outputs": [],
      "payable": false,
      "stateMutability": "nonpayable",
      "type": "function"
    },
    {
      "constant": false,
      "inputs": [],
      "name": "scapeHatch",
      "outputs": [],
      "payable": false,
      "stateMutability": "nonpayable",
      "type": "function"
    },
    {
      "constant": true,
      "inputs": [],
      "name": "getEmployeeCount",
      "outputs": [
        {
          "name": "",
          "type": "uint256"
        }
      ],
      "payable": false,
      "stateMutability": "view",
      "type": "function"
    },
    {
      "constant": true,
      "inputs": [],
      "name": "getActiveEmployeeCount",
      "outputs": [
        {
          "name": "",
          "type": "uint256"
        }
      ],
      "payable": false,
      "stateMutability": "view",
      "type": "function"
    },
    {
      "constant": true,
      "inputs": [
        {
          "name": "employeeId",
          "type": "uint256"
        }
      ],
      "name": "getEmployee",
      "outputs": [
        {
          "name": "accountAddress",
          "type": "address"
        },
        {
          "name": "allowedTokens",
          "type": "address[]"
        },
        {
          "name": "yearlyEURSalary",
          "type": "uint256"
        }
      ],
      "payable": false,
      "stateMutability": "view",
      "type": "function"
    },
    {
      "constant": true,
      "inputs": [],
      "name": "calculatePayrollBurnrate",
      "outputs": [
        {
          "name": "",
          "type": "uint256"
        }
      ],
      "payable": false,
      "stateMutability": "view",
      "type": "function"
    },
    {
      "constant": true,
      "inputs": [],
      "name": "calculatePayrollRunway",
      "outputs": [
        {
          "name": "",
          "type": "address"
        },
        {
          "name": "",
          "type": "uint256"
        }
      ],
      "payable": false,
      "stateMutability": "view",
      "type": "function"
    },
    {
      "constant": true,
      "inputs": [],
      "name": "calculateBurnratesForTokens",
      "outputs": [
        {
          "name": "",
          "type": "uint256[]"
        }
      ],
      "payable": false,
      "stateMutability": "view",
      "type": "function"
    },
    {
      "constant": true,
      "inputs": [],
      "name": "getAllocation",
      "outputs": [
        {
          "name": "",
          "type": "address[]"
        },
        {
          "name": "",
          "type": "uint256[]"
        }
      ],
      "payable": false,
      "stateMutability": "view",
      "type": "function"
    },
    {
      "constant": true,
      "inputs": [
        {
          "name": "_address",
          "type": "address"
        }
      ],
      "name": "getAllocationForAddress",
      "outputs": [
        {
          "name": "",
          "type": "address[]"
        },
        {
          "name": "",
          "type": "uint256[]"
        }
      ],
      "payable": false,
      "stateMutability": "view",
      "type": "function"
    },
    {
      "constant": true,
      "inputs": [
        {
          "name": "employeeId",
          "type": "uint256"
        }
      ],
      "name": "getAllocationForEmployee",
      "outputs": [
        {
          "name": "",
          "type": "address[]"
        },
        {
          "name": "",
          "type": "uint256[]"
        }
      ],
      "payable": false,
      "stateMutability": "view",
      "type": "function"
    },
    {
      "constant": false,
      "inputs": [
        {
          "name": "distributionTokens",
          "type": "address[]"
        },
        {
          "name": "distribution",
          "type": "uint256[]"
        }
      ],
      "name": "determineAllocation",
      "outputs": [],
      "payable": false,
      "stateMutability": "nonpayable",
      "type": "function"
    },
    {
      "constant": false,
      "inputs": [],
      "name": "payday",
      "outputs": [],
      "payable": false,
      "stateMutability": "nonpayable",
      "type": "function"
    },
    {
      "constant": false,
      "inputs": [
        {
          "name": "token",
          "type": "address"
        },
        {
          "name": "EURExchangeRate",
          "type": "uint256"
        }
      ],
      "name": "setExchangeRate",
      "outputs": [],
      "payable": false,
      "stateMutability": "nonpayable",
      "type": "function"
    },
    {
      "constant": false,
      "inputs": [
        {
          "name": "_tokens",
          "type": "address[]"
        },
        {
          "name": "_EURExchangeRates",
          "type": "uint256[]"
        }
      ],
      "name": "setExchangeRates",
      "outputs": [],
      "payable": false,
      "stateMutability": "nonpayable",
      "type": "function"
    }
  ],
  "bytecode": "0x6060604052341561000f57600080fd5b336000806101000a81548173ffffffffffffffffffffffffffffffffffffffff021916908373ffffffffffffffffffffffffffffffffffffffff1602179055506140fd8061005e6000396000f3006060604052600436106101b7576000357c0100000000000000000000000000000000000000000000000000000000900463ffffffff16806309d2c948146101bc5780630a0c75aa146101e55780630c9e1e8e1461021157806316e85b2e146102c357806321ed0f64146102d85780632560baeb146102fb5780632d9b4b251461032457806335c278301461037a5780634739326b1461038f5780634f64b2be146103f95780636432e9e01461045c578063648856d6146104b857806365f4d422146105055780636881385b1461055257806368c84260146105675780636e85d245146105e95780636edd79a5146106365780636f6b9c5a1461070c57806374c14362146107595780637a90c1521461079b5780637adbf973146108055780637db05aa41461083e5780637dc0d1d0146108c0578063890c4a90146109155780638da5cb5b1461096f5780639b66b516146109c4578063a26759cb14610a27578063a577d9c314610a31578063af4c683814610a9d578063bca9a5c514610aee578063bd5c542014610ba0578063c2a63e3b14610be2578063c9e314c614610c0b578063e884a73214610ca5578063fe2fdf0b14610d65575b600080fd5b34156101c757600080fd5b6101cf610dff565b6040518082815260200191505060405180910390f35b34156101f057600080fd5b61020f6004808035906020019091908035906020019091905050610ead565b005b341561021c57600080fd5b610224610f83565b604051808060200180602001838103835285818151815260200191508051906020019060200280838360005b8381101561026b578082015181840152602081019050610250565b50505050905001838103825284818151815260200191508051906020019060200280838360005b838110156102ad578082015181840152602081019050610292565b5050505090500194505050505060405180910390f35b34156102ce57600080fd5b6102d66110f3565b005b34156102e357600080fd5b6102f96004808035906020019091905050611492565b005b341561030657600080fd5b61030e611621565b6040518082815260200191505060405180910390f35b341561032f57600080fd5b610364600480803573ffffffffffffffffffffffffffffffffffffffff1690602001909190803590602001909190505061169e565b6040518082815260200191505060405180910390f35b341561038557600080fd5b61038d6116cf565b005b341561039a57600080fd5b6103b06004808035906020019091905050611830565b604051808373ffffffffffffffffffffffffffffffffffffffff1673ffffffffffffffffffffffffffffffffffffffff1681526020018281526020019250505060405180910390f35b341561040457600080fd5b61041a6004808035906020019091905050611883565b604051808273ffffffffffffffffffffffffffffffffffffffff1673ffffffffffffffffffffffffffffffffffffffff16815260200191505060405180910390f35b341561046757600080fd5b61046f6118c2565b604051808373ffffffffffffffffffffffffffffffffffffffff1673ffffffffffffffffffffffffffffffffffffffff1681526020018281526020019250505060405180910390f35b34156104c357600080fd5b6104ef600480803573ffffffffffffffffffffffffffffffffffffffff169060200190919050506118dd565b6040518082815260200191505060405180910390f35b341561051057600080fd5b61053c600480803573ffffffffffffffffffffffffffffffffffffffff169060200190919050506118f5565b6040518082815260200191505060405180910390f35b341561055d57600080fd5b61056561190d565b005b341561057257600080fd5b6105e7600480803573ffffffffffffffffffffffffffffffffffffffff1690602001909190803590602001908201803590602001908080602002602001604051908101604052809392919081815260200183836020028082843782019150505050505091908035906020019091905050611fb5565b005b34156105f457600080fd5b610620600480803573ffffffffffffffffffffffffffffffffffffffff1690602001909190505061222c565b6040518082815260200191505060405180910390f35b341561064157600080fd5b61066d600480803573ffffffffffffffffffffffffffffffffffffffff16906020019091905050612244565b604051808060200180602001838103835285818151815260200191508051906020019060200280838360005b838110156106b4578082015181840152602081019050610699565b50505050905001838103825284818151815260200191508051906020019060200280838360005b838110156106f65780820151818401526020810190506106db565b5050505090500194505050505060405180910390f35b341561071757600080fd5b610743600480803573ffffffffffffffffffffffffffffffffffffffff169060200190919050506123b5565b6040518082815260200191505060405180910390f35b341561076457600080fd5b610799600480803573ffffffffffffffffffffffffffffffffffffffff169060200190919080359060200190919050506123cd565b005b34156107a657600080fd5b6107ae6126a3565b6040518080602001828103825283818151815260200191508051906020019060200280838360005b838110156107f15780820151818401526020810190506107d6565b505050509050019250505060405180910390f35b341561081057600080fd5b61083c600480803573ffffffffffffffffffffffffffffffffffffffff169060200190919050506129b1565b005b341561084957600080fd5b61087e600480803573ffffffffffffffffffffffffffffffffffffffff16906020019091908035906020019091905050612ad5565b604051808273ffffffffffffffffffffffffffffffffffffffff1673ffffffffffffffffffffffffffffffffffffffff16815260200191505060405180910390f35b34156108cb57600080fd5b6108d3612b23565b604051808273ffffffffffffffffffffffffffffffffffffffff1673ffffffffffffffffffffffffffffffffffffffff16815260200191505060405180910390f35b341561092057600080fd5b61096d600480803590602001908201803590602001908080602002602001604051908101604052809392919081815260200183836020028082843782019150505050505091905050612b49565b005b341561097a57600080fd5b610982612c7b565b604051808273ffffffffffffffffffffffffffffffffffffffff1673ffffffffffffffffffffffffffffffffffffffff16815260200191505060405180910390f35b34156109cf57600080fd5b610a25600480803590602001909190803590602001908201803590602001908080602002602001604051908101604052809392919081815260200183836020028082843782019150505050505091905050612ca0565b005b610a2f612dcd565b005b3415610a3c57600080fd5b610a87600480803573ffffffffffffffffffffffffffffffffffffffff1690602001909190803573ffffffffffffffffffffffffffffffffffffffff16906020019091905050612f7f565b6040518082815260200191505060405180910390f35b3415610aa857600080fd5b610ad4600480803573ffffffffffffffffffffffffffffffffffffffff16906020019091905050612fa4565b604051808215151515815260200191505060405180910390f35b3415610af957600080fd5b610b0f6004808035906020019091905050612fc4565b604051808473ffffffffffffffffffffffffffffffffffffffff1673ffffffffffffffffffffffffffffffffffffffff16815260200180602001838152602001828103825284818151815260200191508051906020019060200280838360005b83811015610b8a578082015181840152602081019050610b6f565b5050505090500194505050505060405180910390f35b3415610bab57600080fd5b610be0600480803573ffffffffffffffffffffffffffffffffffffffff169060200190919080359060200190919050506130b7565b005b3415610bed57600080fd5b610bf56131c6565b6040518082815260200191505060405180910390f35b3415610c1657600080fd5b610ca3600480803590602001908201803590602001908080602002602001604051908101604052809392919081815260200183836020028082843782019150505050505091908035906020019082018035906020019080806020026020016040519081016040528093929190818152602001838360200280828437820191505050505050919050506131d3565b005b3415610cb057600080fd5b610cc660048080359060200190919050506133a4565b604051808060200180602001838103835285818151815260200191508051906020019060200280838360005b83811015610d0d578082015181840152602081019050610cf2565b50505050905001838103825284818151815260200191508051906020019060200280838360005b83811015610d4f578082015181840152602081019050610d34565b5050505090500194505050505060405180910390f35b3415610d7057600080fd5b610dfd60048080359060200190820180359060200190808060200260200160405190810160405280939291908181526020018383602002808284378201915050505050509190803590602001908201803590602001908080602002602001604051908101604052809392919081815260200183836020028082843782019150505050505091905050613563565b005b6000806000809150600090505b600280549050811015610ea557600073ffffffffffffffffffffffffffffffffffffffff16600282815481101515610e4057fe5b906000526020600020906003020160000160009054906101000a900473ffffffffffffffffffffffffffffffffffffffff1673ffffffffffffffffffffffffffffffffffffffff16141515610e985781806001019250505b8080600101915050610e0c565b819250505090565b6000809054906101000a900473ffffffffffffffffffffffffffffffffffffffff1673ffffffffffffffffffffffffffffffffffffffff163373ffffffffffffffffffffffffffffffffffffffff16141515610f0857600080fd5b60008214151515610f1857600080fd5b80600260018403815481101515610f2b57fe5b9060005260206000209060030201600201819055507f513be2fc65a5dac62d6e1b032498d16eefe8bde7d11dff22331597cab2ab23db8282604051808381526020018281526020019250505060405180910390a15050565b610f8b613db1565b610f93613dc5565b600960003373ffffffffffffffffffffffffffffffffffffffff1673ffffffffffffffffffffffffffffffffffffffff168152602001908152602001600020600a60003373ffffffffffffffffffffffffffffffffffffffff1673ffffffffffffffffffffffffffffffffffffffff1681526020019081526020016000208180548060200260200160405190810160405280929190818152602001828054801561109257602002820191906000526020600020905b8160009054906101000a900473ffffffffffffffffffffffffffffffffffffffff1673ffffffffffffffffffffffffffffffffffffffff1681526020019060010190808311611048575b50505050509150808054806020026020016040519081016040528092919081815260200182805480156110e457602002820191906000526020600020905b8154815260200190600101908083116110d0575b50505050509050915091509091565b60008060008060009054906101000a900473ffffffffffffffffffffffffffffffffffffffff1673ffffffffffffffffffffffffffffffffffffffff163373ffffffffffffffffffffffffffffffffffffffff1614151561115357600080fd5b6000809054906101000a900473ffffffffffffffffffffffffffffffffffffffff1673ffffffffffffffffffffffffffffffffffffffff166108fc3073ffffffffffffffffffffffffffffffffffffffff16319081150290604051600060405180830381858888f1935050505015156111cb57600080fd5b600560008073ffffffffffffffffffffffffffffffffffffffff1673ffffffffffffffffffffffffffffffffffffffff16815260200190815260200160002060006101000a81549060ff0219169055600092505b6003805490508310156114535760038381548110151561123b57fe5b906000526020600020900160009054906101000a900473ffffffffffffffffffffffffffffffffffffffff1691508190508073ffffffffffffffffffffffffffffffffffffffff1663a9059cbb6000809054906101000a900473ffffffffffffffffffffffffffffffffffffffff168373ffffffffffffffffffffffffffffffffffffffff166370a08231306040518263ffffffff167c0100000000000000000000000000000000000000000000000000000000028152600401808273ffffffffffffffffffffffffffffffffffffffff1673ffffffffffffffffffffffffffffffffffffffff168152602001915050602060405180830381600087803b151561134457600080fd5b5af1151561135157600080fd5b505050604051805190506040518363ffffffff167c0100000000000000000000000000000000000000000000000000000000028152600401808373ffffffffffffffffffffffffffffffffffffffff1673ffffffffffffffffffffffffffffffffffffffff16815260200182815260200192505050602060405180830381600087803b15156113df57600080fd5b5af115156113ec57600080fd5b5050506040518051905050600560008373ffffffffffffffffffffffffffffffffffffffff1673ffffffffffffffffffffffffffffffffffffffff16815260200190815260200160002060006101000a81549060ff0219169055828060010193505061121f565b600360006114619190613dd9565b7f098f9e0561faa5d8b64109566efed727d04b1af3fc6896d049cf762d7e8eb1f060405160405180910390a1505050565b6000809054906101000a900473ffffffffffffffffffffffffffffffffffffffff1673ffffffffffffffffffffffffffffffffffffffff163373ffffffffffffffffffffffffffffffffffffffff161415156114ed57600080fd5b600081141515156114fd57600080fd5b60006004600060026001850381548110151561151557fe5b906000526020600020906003020160000160009054906101000a900473ffffffffffffffffffffffffffffffffffffffff1673ffffffffffffffffffffffffffffffffffffffff1673ffffffffffffffffffffffffffffffffffffffff1681526020019081526020016000208190555060026001820381548110151561159757fe5b9060005260206000209060030201600080820160006101000a81549073ffffffffffffffffffffffffffffffffffffffff02191690556001820160006115dd9190613dd9565b600282016000905550507f0a62528f10ed8443c60096694c08cf43c78b8849dbe92caf3b1f0895e2549504816040518082815260200191505060405180910390a150565b60008060008060009250600091505b60028054905082101561169557611671600c60028481548110151561165157fe5b906000526020600020906003020160020154613b2d90919063ffffffff16565b90506116868184613b6e90919063ffffffff16565b92508180600101925050611630565b82935050505090565b600a602052816000526040600020818154811015156116b957fe5b9060005260206000209001600091509150505481565b6000806000809054906101000a900473ffffffffffffffffffffffffffffffffffffffff1673ffffffffffffffffffffffffffffffffffffffff163373ffffffffffffffffffffffffffffffffffffffff1614151561172d57600080fd5b600091505b6002805490508210156117805760028281548110151561174e57fe5b90600052602060002090600302019050600381600101908054611772929190613dfa565b508180600101925050611732565b7f87ea59a7f12408aeab9eef440ea51db4270c5c87eafebe9f780bb6406e15eccf60036040518080602001828103825283818154815260200191508054801561181e57602002820191906000526020600020905b8160009054906101000a900473ffffffffffffffffffffffffffffffffffffffff1673ffffffffffffffffffffffffffffffffffffffff16815260200190600101908083116117d4575b50509250505060405180910390a15050565b60028181548110151561183f57fe5b90600052602060002090600302016000915090508060000160009054906101000a900473ffffffffffffffffffffffffffffffffffffffff16908060020154905082565b60038181548110151561189257fe5b90600052602060002090016000915054906101000a900473ffffffffffffffffffffffffffffffffffffffff1681565b6000806118d56118d06126a3565b613b8c565b915091509091565b60086020528060005260406000206000915090505481565b60046020528060005260406000206000915090505481565b60008060008061191b613dc5565b600080600080600080600080600460003373ffffffffffffffffffffffffffffffffffffffff1673ffffffffffffffffffffffffffffffffffffffff16815260200190815260200160002054141580156119d85750600060026001600460003373ffffffffffffffffffffffffffffffffffffffff1673ffffffffffffffffffffffffffffffffffffffff16815260200190815260200160002054038154811015156119c357fe5b90600052602060002090600302016002015414155b15156119e357600080fd5b6000600460003373ffffffffffffffffffffffffffffffffffffffff1673ffffffffffffffffffffffffffffffffffffffff1681526020019081526020016000205414151515611a3257600080fd5b60026001600460003373ffffffffffffffffffffffffffffffffffffffff1673ffffffffffffffffffffffffffffffffffffffff1681526020019081526020016000205403815481101515611a8357fe5b90600052602060002090600302019b5060008c6002015414151515611aa757600080fd5b600960003373ffffffffffffffffffffffffffffffffffffffff1673ffffffffffffffffffffffffffffffffffffffff1681526020019081526020016000209a50600a60003373ffffffffffffffffffffffffffffffffffffffff1673ffffffffffffffffffffffffffffffffffffffff1681526020019081526020016000209950611b41600c8d60020154613b2d90919063ffffffff16565b98508a80549050604051805910611b555750595b90808252806020026020018201604052509750600096505b8a80549050871015611e7f578a87815481101515611b8757fe5b906000526020600020900160009054906101000a900473ffffffffffffffffffffffffffffffffffffffff169550600073ffffffffffffffffffffffffffffffffffffffff168673ffffffffffffffffffffffffffffffffffffffff1614611c6b578573ffffffffffffffffffffffffffffffffffffffff1663313ce5676040518163ffffffff167c0100000000000000000000000000000000000000000000000000000000028152600401602060405180830381600087803b1515611c4c57600080fd5b5af11515611c5957600080fd5b5050506040518051905060ff16611c6e565b60125b94508987815481101515611c7e57fe5b9060005260206000209001549350600660008773ffffffffffffffffffffffffffffffffffffffff1673ffffffffffffffffffffffffffffffffffffffff168152602001908152602001600020549250611cf46064611ce6868c613d7e90919063ffffffff16565b613b2d90919063ffffffff16565b9150611d1e85600a0a611d108585613b2d90919063ffffffff16565b613d7e90919063ffffffff16565b9050600073ffffffffffffffffffffffffffffffffffffffff168673ffffffffffffffffffffffffffffffffffffffff161415611d9a573373ffffffffffffffffffffffffffffffffffffffff166108fc829081150290604051600060405180830381858888f193505050501515611d9557600080fd5b611e55565b8573ffffffffffffffffffffffffffffffffffffffff1663a9059cbb33836040518363ffffffff167c0100000000000000000000000000000000000000000000000000000000028152600401808373ffffffffffffffffffffffffffffffffffffffff1673ffffffffffffffffffffffffffffffffffffffff16815260200182815260200192505050602060405180830381600087803b1515611e3c57600080fd5b5af11515611e4957600080fd5b50505060405180519050505b808888815181101515611e6457fe5b90602001906020020181815250508680600101975050611b6d565b7f45e17fb26c761826e5e1752fe4b0eea9d5919b2af299351a1cffe62729158716338c8a604051808473ffffffffffffffffffffffffffffffffffffffff1673ffffffffffffffffffffffffffffffffffffffff16815260200180602001806020018381038352858181548152602001915080548015611f5457602002820191906000526020600020905b8160009054906101000a900473ffffffffffffffffffffffffffffffffffffffff1673ffffffffffffffffffffffffffffffffffffffff1681526020019060010190808311611f0a575b5050838103825284818151815260200191508051906020019060200280838360005b83811015611f91578082015181840152602081019050611f76565b505050509050019550505050505060405180910390a1505050505050505050505050565b6000809054906101000a900473ffffffffffffffffffffffffffffffffffffffff1673ffffffffffffffffffffffffffffffffffffffff163373ffffffffffffffffffffffffffffffffffffffff1614151561201057600080fd5b6000600460008573ffffffffffffffffffffffffffffffffffffffff1673ffffffffffffffffffffffffffffffffffffffff1681526020019081526020016000205414151561205e57600080fd5b600280548060010182816120729190613e4c565b916000526020600020906003020160006060604051908101604052808773ffffffffffffffffffffffffffffffffffffffff16815260200186815260200185815250909190915060008201518160000160006101000a81548173ffffffffffffffffffffffffffffffffffffffff021916908373ffffffffffffffffffffffffffffffffffffffff160217905550602082015181600101908051906020019061211c929190613e7e565b5060408201518160020155505050600280549050600460008573ffffffffffffffffffffffffffffffffffffffff1673ffffffffffffffffffffffffffffffffffffffff168152602001908152602001600020819055507f25307dff34ee0f113768e7a9c935c573f211e83f8b48c96b3264fa64765fd0ae838383604051808473ffffffffffffffffffffffffffffffffffffffff1673ffffffffffffffffffffffffffffffffffffffff16815260200180602001838152602001828103825284818151815260200191508051906020019060200280838360005b838110156122125780820151818401526020810190506121f7565b5050505090500194505050505060405180910390a1505050565b60066020528060005260406000206000915090505481565b61224c613db1565b612254613dc5565b600960008473ffffffffffffffffffffffffffffffffffffffff1673ffffffffffffffffffffffffffffffffffffffff168152602001908152602001600020600a60008573ffffffffffffffffffffffffffffffffffffffff1673ffffffffffffffffffffffffffffffffffffffff1681526020019081526020016000208180548060200260200160405190810160405280929190818152602001828054801561235357602002820191906000526020600020905b8160009054906101000a900473ffffffffffffffffffffffffffffffffffffffff1673ffffffffffffffffffffffffffffffffffffffff1681526020019060010190808311612309575b50505050509150808054806020026020016040519081016040528092919081815260200182805480156123a557602002820191906000526020600020905b815481526020019060010190808311612391575b5050505050905091509150915091565b60076020528060005260406000206000915090505481565b6000809054906101000a900473ffffffffffffffffffffffffffffffffffffffff1673ffffffffffffffffffffffffffffffffffffffff163373ffffffffffffffffffffffffffffffffffffffff1614151561242857600080fd5b60008111151561243757600080fd5b8173ffffffffffffffffffffffffffffffffffffffff166323b872dd3330846040518463ffffffff167c0100000000000000000000000000000000000000000000000000000000028152600401808473ffffffffffffffffffffffffffffffffffffffff1673ffffffffffffffffffffffffffffffffffffffff1681526020018373ffffffffffffffffffffffffffffffffffffffff1673ffffffffffffffffffffffffffffffffffffffff1681526020018281526020019350505050602060405180830381600087803b151561250d57600080fd5b5af1151561251a57600080fd5b5050506040518051905050600560008373ffffffffffffffffffffffffffffffffffffffff1673ffffffffffffffffffffffffffffffffffffffff16815260200190815260200160002060009054906101000a900460ff161515612634576003805480600101828161258c9190613f08565b9160005260206000209001600084909190916101000a81548173ffffffffffffffffffffffffffffffffffffffff021916908373ffffffffffffffffffffffffffffffffffffffff160217905550506001600560008473ffffffffffffffffffffffffffffffffffffffff1673ffffffffffffffffffffffffffffffffffffffff16815260200190815260200160002060006101000a81548160ff0219169083151502179055505b7ffdb9b2559a1b60f1faaf39ce1e247627f5175e47366ef4190c7deb3ae6023d768282604051808373ffffffffffffffffffffffffffffffffffffffff1673ffffffffffffffffffffffffffffffffffffffff1681526020018281526020019250505060405180910390a15050565b6126ab613dc5565b6126b3613dc5565b6000806000806000806000806000806000806003805490506040518059106126d85750595b90808252806020026020018201604052509c5060009b505b6003805490508c101561299e5760038c81548110151561270c57fe5b906000526020600020900160009054906101000a900473ffffffffffffffffffffffffffffffffffffffff169a5060009950600660008c73ffffffffffffffffffffffffffffffffffffffff1673ffffffffffffffffffffffffffffffffffffffff168152602001908152602001600020549850600089141561278e57612991565b8a97508773ffffffffffffffffffffffffffffffffffffffff1663313ce5676040518163ffffffff167c0100000000000000000000000000000000000000000000000000000000028152600401602060405180830381600087803b15156127f457600080fd5b5af1151561280157600080fd5b5050506040518051905060ff169650600095505b6002805490508610156129735760028681548110151561283157fe5b90600052602060002090600302019450600b60008660000160009054906101000a900473ffffffffffffffffffffffffffffffffffffffff1673ffffffffffffffffffffffffffffffffffffffff1673ffffffffffffffffffffffffffffffffffffffff16815260200190815260200160002060008c73ffffffffffffffffffffffffffffffffffffffff1673ffffffffffffffffffffffffffffffffffffffff1681526020019081526020016000205493506128fd61016d8660020154613b2d90919063ffffffff16565b925061292560646129178686613d7e90919063ffffffff16565b613b2d90919063ffffffff16565b915061294f87600a0a6129418b85613b2d90919063ffffffff16565b613d7e90919063ffffffff16565b9050612964818b613b6e90919063ffffffff16565b99508580600101965050612815565b898d8d81518110151561298257fe5b90602001906020020181815250505b8b806001019c50506126f0565b8c9d505050505050505050505050505090565b6000809054906101000a900473ffffffffffffffffffffffffffffffffffffffff1673ffffffffffffffffffffffffffffffffffffffff163373ffffffffffffffffffffffffffffffffffffffff16141515612a0c57600080fd5b80600160006101000a81548173ffffffffffffffffffffffffffffffffffffffff021916908373ffffffffffffffffffffffffffffffffffffffff1602179055507f3df77beb5db05fcdd70a30fc8adf3f83f9501b68579455adbd100b8180940394600160009054906101000a900473ffffffffffffffffffffffffffffffffffffffff16604051808273ffffffffffffffffffffffffffffffffffffffff1673ffffffffffffffffffffffffffffffffffffffff16815260200191505060405180910390a150565b600960205281600052604060002081815481101515612af057fe5b90600052602060002090016000915091509054906101000a900473ffffffffffffffffffffffffffffffffffffffff1681565b600160009054906101000a900473ffffffffffffffffffffffffffffffffffffffff1681565b6000806000809054906101000a900473ffffffffffffffffffffffffffffffffffffffff1673ffffffffffffffffffffffffffffffffffffffff163373ffffffffffffffffffffffffffffffffffffffff16141515612ba757600080fd5b600091505b600280549050821015612bfe57600282815481101515612bc857fe5b9060005260206000209060030201905082816001019080519060200190612bf0929190613f34565b508180600101925050612bac565b7f87ea59a7f12408aeab9eef440ea51db4270c5c87eafebe9f780bb6406e15eccf836040518080602001828103825283818151815260200191508051906020019060200280838360005b83811015612c63578082015181840152602081019050612c48565b505050509050019250505060405180910390a1505050565b6000809054906101000a900473ffffffffffffffffffffffffffffffffffffffff1681565b60008060009054906101000a900473ffffffffffffffffffffffffffffffffffffffff1673ffffffffffffffffffffffffffffffffffffffff163373ffffffffffffffffffffffffffffffffffffffff16141515612cfd57600080fd5b60008314151515612d0d57600080fd5b600260018403815481101515612d1f57fe5b9060005260206000209060030201905081816001019080519060200190612d47929190613f34565b507fa0f125dead195a3ed58cb8d8dbb5f2d11f9d5ffa8601f821fbd92f1da5f177a883836040518083815260200180602001828103825283818151815260200191508051906020019060200280838360005b83811015612db4578082015181840152602081019050612d99565b50505050905001935050505060405180910390a1505050565b6000809054906101000a900473ffffffffffffffffffffffffffffffffffffffff1673ffffffffffffffffffffffffffffffffffffffff163373ffffffffffffffffffffffffffffffffffffffff16141515612e2857600080fd5b600034111515612e3757600080fd5b600560008073ffffffffffffffffffffffffffffffffffffffff1673ffffffffffffffffffffffffffffffffffffffff16815260200190815260200160002060009054906101000a900460ff161515612f465760038054806001018281612e9e9190613f08565b9160005260206000209001600080909190916101000a81548173ffffffffffffffffffffffffffffffffffffffff021916908373ffffffffffffffffffffffffffffffffffffffff160217905550506001600560008073ffffffffffffffffffffffffffffffffffffffff1673ffffffffffffffffffffffffffffffffffffffff16815260200190815260200160002060006101000a81548160ff0219169083151502179055505b7fd30fc8a1b5907be76206421a3040262f1f6aed0d418c05312ef5ff8de0c9ae4c346040518082815260200191505060405180910390a1565b600b602052816000526040600020602052806000526040600020600091509150505481565b60056020528060005260406000206000915054906101000a900460ff1681565b6000612fce613db1565b600080600260018603815481101515612fe357fe5b906000526020600020906003020190508060000160009054906101000a900473ffffffffffffffffffffffffffffffffffffffff16816001018260020154818054806020026020016040519081016040528092919081815260200182805480156130a257602002820191906000526020600020905b8160009054906101000a900473ffffffffffffffffffffffffffffffffffffffff1673ffffffffffffffffffffffffffffffffffffffff1681526020019060010190808311613058575b50505050509150935093509350509193909250565b600160009054906101000a900473ffffffffffffffffffffffffffffffffffffffff1673ffffffffffffffffffffffffffffffffffffffff163373ffffffffffffffffffffffffffffffffffffffff1614151561311357600080fd5b80600660008473ffffffffffffffffffffffffffffffffffffffff1673ffffffffffffffffffffffffffffffffffffffff168152602001908152602001600020819055507f0b4e9390054347e2a16d95fd8376311b0d2deedecba526e9742bcaa40b059f0b8282604051808373ffffffffffffffffffffffffffffffffffffffff1673ffffffffffffffffffffffffffffffffffffffff1681526020018281526020019250505060405180910390a15050565b6000600280549050905090565b6000600160009054906101000a900473ffffffffffffffffffffffffffffffffffffffff1673ffffffffffffffffffffffffffffffffffffffff163373ffffffffffffffffffffffffffffffffffffffff1614151561323157600080fd5b6000835111151561324157600080fd5b8151835114151561325157600080fd5b600090505b82518110156132de57818181518110151561326d57fe5b9060200190602002015160066000858481518110151561328957fe5b9060200190602002015173ffffffffffffffffffffffffffffffffffffffff1673ffffffffffffffffffffffffffffffffffffffff168152602001908152602001600020819055508080600101915050613256565b7f0915a7630118f6c0b4d162c02684a5e95a38c5b53ebf351e1c706d3e92f614828383604051808060200180602001838103835285818151815260200191508051906020019060200280838360005b8381101561334857808201518184015260208101905061332d565b50505050905001838103825284818151815260200191508051906020019060200280838360005b8381101561338a57808201518184015260208101905061336f565b5050505090500194505050505060405180910390a1505050565b6133ac613db1565b6133b4613dc5565b6000806002600186038154811015156133c957fe5b906000526020600020906003020191508160000160009054906101000a900473ffffffffffffffffffffffffffffffffffffffff169050600960008273ffffffffffffffffffffffffffffffffffffffff1673ffffffffffffffffffffffffffffffffffffffff168152602001908152602001600020600a60008373ffffffffffffffffffffffffffffffffffffffff1673ffffffffffffffffffffffffffffffffffffffff168152602001908152602001600020818054806020026020016040519081016040528092919081815260200182805480156134ff57602002820191906000526020600020905b8160009054906101000a900473ffffffffffffffffffffffffffffffffffffffff1673ffffffffffffffffffffffffffffffffffffffff16815260200190600101908083116134b5575b505050505091508080548060200260200160405190810160405280929190818152602001828054801561355157602002820191906000526020600020905b81548152602001906001019080831161353d575b50505050509050935093505050915091565b600080600080600080600080600460003373ffffffffffffffffffffffffffffffffffffffff1673ffffffffffffffffffffffffffffffffffffffff16815260200190815260200160002054141580156136205750600060026001600460003373ffffffffffffffffffffffffffffffffffffffff1673ffffffffffffffffffffffffffffffffffffffff168152602001908152602001600020540381548110151561360b57fe5b90600052602060002090600302016002015414155b151561362b57600080fd5b8751895114151561363b57600080fd5b60026001600460003373ffffffffffffffffffffffffffffffffffffffff1673ffffffffffffffffffffffffffffffffffffffff168152602001908152602001600020540381548110151561368c57fe5b90600052602060002090600302019650600095505b885186101561382d57600560008a888151811015156136bc57fe5b9060200190602002015173ffffffffffffffffffffffffffffffffffffffff1673ffffffffffffffffffffffffffffffffffffffff16815260200190815260200160002060009054906101000a900460ff16151561371957600080fd5b60009450600093505b86600101805490508410156137ca57866001018481548110151561374257fe5b906000526020600020900160009054906101000a900473ffffffffffffffffffffffffffffffffffffffff1673ffffffffffffffffffffffffffffffffffffffff16898781518110151561379257fe5b9060200190602002015173ffffffffffffffffffffffffffffffffffffffff1614156137bd57600194505b8380600101945050613722565b8415156137d657600080fd5b600088878151811015156137e657fe5b9060200190602002015111801561381557506064888781518110151561380857fe5b9060200190602002015111155b151561382057600080fd5b85806001019650506136a1565b60009250600091505b875182101561386857878281518110151561384d57fe5b90602001906020020151830192508180600101925050613836565b60648314151561387757600080fd5b42600760003373ffffffffffffffffffffffffffffffffffffffff1673ffffffffffffffffffffffffffffffffffffffff1681526020019081526020016000208190555087600a60003373ffffffffffffffffffffffffffffffffffffffff1673ffffffffffffffffffffffffffffffffffffffff168152602001908152602001600020908051906020019061390e929190613fbe565b5088600960003373ffffffffffffffffffffffffffffffffffffffff1673ffffffffffffffffffffffffffffffffffffffff1681526020019081526020016000209080519060200190613962929190613f34565b50600090505b8751811015613a2d57878181518110151561397f57fe5b90602001906020020151600b60003373ffffffffffffffffffffffffffffffffffffffff1673ffffffffffffffffffffffffffffffffffffffff16815260200190815260200160002060008b848151811015156139d857fe5b9060200190602002015173ffffffffffffffffffffffffffffffffffffffff1673ffffffffffffffffffffffffffffffffffffffff168152602001908152602001600020819055508080600101915050613968565b7fd5fe93acf0e5f132f5f75dfa793c0fd1fe888259d9db594eaaf0b27799ef638f338a8a604051808473ffffffffffffffffffffffffffffffffffffffff1673ffffffffffffffffffffffffffffffffffffffff1681526020018060200180602001838103835285818151815260200191508051906020019060200280838360005b83811015613aca578082015181840152602081019050613aaf565b50505050905001838103825284818151815260200191508051906020019060200280838360005b83811015613b0c578082015181840152602081019050613af1565b505050509050019550505050505060405180910390a1505050505050505050565b600080600083111515613b3c57fe5b8284811515613b4757fe5b0490508284811515613b5557fe5b068184020184141515613b6457fe5b8091505092915050565b6000808284019050838110151515613b8257fe5b8091505092915050565b6000806000806000806000806000955060009450600093505b600380549050841015613d6d5760008985815181101515613bc257fe5b906020019060200201511415613bd757613d60565b600384815481101515613be657fe5b906000526020600020900160009054906101000a900473ffffffffffffffffffffffffffffffffffffffff169250600073ffffffffffffffffffffffffffffffffffffffff168373ffffffffffffffffffffffffffffffffffffffff1614613cfe578273ffffffffffffffffffffffffffffffffffffffff166370a08231306040518263ffffffff167c0100000000000000000000000000000000000000000000000000000000028152600401808273ffffffffffffffffffffffffffffffffffffffff1673ffffffffffffffffffffffffffffffffffffffff168152602001915050602060405180830381600087803b1515613ce257600080fd5b5af11515613cef57600080fd5b50505060405180519050613d17565b3073ffffffffffffffffffffffffffffffffffffffff16315b9150613d438985815181101515613d2a57fe5b9060200190602002015183613b2d90919063ffffffff16565b90506000861480613d5357508581105b15613d5f578095508294505b5b8380600101945050613ba5565b848697509750505050505050915091565b60008082840290506000841480613d9f5750828482811515613d9c57fe5b04145b1515613da757fe5b8091505092915050565b602060405190810160405280600081525090565b602060405190810160405280600081525090565b5080546000825590600052602060002090810190613df7919061400b565b50565b828054828255906000526020600020908101928215613e3b5760005260206000209182015b82811115613e3a578254825591600101919060010190613e1f565b5b509050613e489190614030565b5090565b815481835581811511613e7957600302816003028360005260206000209182019101613e789190614073565b5b505050565b828054828255906000526020600020908101928215613ef7579160200282015b82811115613ef65782518260006101000a81548173ffffffffffffffffffffffffffffffffffffffff021916908373ffffffffffffffffffffffffffffffffffffffff16021790555091602001919060010190613e9e565b5b509050613f049190614030565b5090565b815481835581811511613f2f57818360005260206000209182019101613f2e919061400b565b5b505050565b828054828255906000526020600020908101928215613fad579160200282015b82811115613fac5782518260006101000a81548173ffffffffffffffffffffffffffffffffffffffff021916908373ffffffffffffffffffffffffffffffffffffffff16021790555091602001919060010190613f54565b5b509050613fba9190614030565b5090565b828054828255906000526020600020908101928215613ffa579160200282015b82811115613ff9578251825591602001919060010190613fde565b5b509050614007919061400b565b5090565b61402d91905b80821115614029576000816000905550600101614011565b5090565b90565b61407091905b8082111561406c57600081816101000a81549073ffffffffffffffffffffffffffffffffffffffff021916905550600101614036565b5090565b90565b6140ce91905b808211156140ca57600080820160006101000a81549073ffffffffffffffffffffffffffffffffffffffff02191690556001820160006140b99190613dd9565b600282016000905550600301614079565b5090565b905600a165627a7a72305820e5b2b670b156a7cb1e89f5a99e2e484bca91e51f856439bbe6a20b448923d6f80029",
  "source": "pragma solidity ^0.4.21;\n\n// For the sake of simplicity lets assume EUR is a ERC20 token\n// Also lets assume we can 100% trust the exchange rate oracle\ncontract PayrollInterface {\n    /* OWNER ONLY */\n    function setOracle(address newOracle) public;\n    function addEmployee(address accountAddress, address[] allowedTokens, uint256 initialYearlyEURSalary) public;\n    function setEmployeeSalary(uint256 employeeId, uint256 yearlyEURSalary) public;\n    function setEmployeeAllowedTokens(uint employeeId, address[] allowedTokens) public;\n    function setEmployeeAllowedTokensForAll(address[] allowedTokens) public;\n    function setEmployeeAllowedTokensToDeposited() public;\n    function removeEmployee(uint256 employeeId) public;\n\n    function addFunds() public payable;\n    function scapeHatch() public;\n    function addTokenFunds(address token, uint256 amount) public;\n\n    function getEmployeeCount() public constant returns (uint256);\n    function getActiveEmployeeCount() public constant returns (uint256);\n    function getEmployee(uint256 employeeId) public constant returns (address accountAddress, address[] allowedTokens, uint yearlyEURSalar); // Return all important info too\n\n    function calculatePayrollBurnrate() public constant returns (uint256); // Monthly EUR amount spent in salaries\n    function calculatePayrollRunway() public constant returns (address, uint256); // Days until the contract can run out of funds\n    function calculateBurnratesForTokens() public view returns (uint[] memory); // amount of token burned per day\n\n    /* EMPLOYEE ONLY */\n    function determineAllocation(address[] tokens, uint256[] distribution) public; // only callable once every 6 months\n    function payday() public; // only callable once a month\n    function getAllocation() public view returns (address[], uint[]);\n    function getAllocationForAddress(address _address) public view returns (address[], uint[]);\n    function getAllocationForEmployee(uint employeeId) public view returns (address[], uint[]);\n\n    /* ORACLE ONLY */\n    function setExchangeRate(address token, uint256 EURExchangeRate) public; // uses decimals from token\n    function setExchangeRates(address[] tokens, uint256[] EURExchangeRate) public; // set multiple token exchange rates\n}\n\ncontract ERC20 {\n    function totalSupply() public constant returns (uint);\n    function balanceOf(address tokenOwner) public constant returns (uint balance);\n    function allowance(address tokenOwner, address spender) public constant returns (uint remaining);\n    function transfer(address to, uint tokens) public returns (bool success);\n    function approve(address spender, uint tokens) public returns (bool success);\n    function transferFrom(address from, address to, uint tokens) public returns (bool success);\n    uint8 public decimals;\n\n    event Transfer(address indexed from, address indexed to, uint tokens);\n    event Approval(address indexed tokenOwner, address indexed spender, uint tokens);\n}\n\nlibrary SafeMath {\n    function mul(uint a, uint b) internal pure returns (uint) {\n        uint c = a * b;\n        assert(a == 0 || c / a == b);\n        return c;\n    }\n    function div(uint a, uint b) internal pure returns (uint) {\n        assert(b > 0);\n        uint c = a / b;\n        assert(a == b * c + a % b);\n        return c;\n    }\n    function sub(uint a, uint b) internal pure returns (uint) {\n        assert(b <= a);\n        return a - b;\n    }\n    function add(uint a, uint b) internal pure returns (uint) {\n        uint c = a + b;\n        assert(c >= a);\n        return c;\n    }\n    function max64(uint64 a, uint64 b) internal pure returns (uint64) {\n        return a >= b ? a : b;\n    }\n    function min64(uint64 a, uint64 b) internal pure returns (uint64) {\n        return a < b ? a : b;\n    }\n    function max256(uint256 a, uint256 b) internal pure returns (uint256) {\n        return a >= b ? a : b;\n    }\n    function min256(uint256 a, uint256 b) internal pure returns (uint256) {\n        return a < b ? a : b;\n    }\n}\n\ncontract Payroll is PayrollInterface {\n    using SafeMath for uint;\n\n    address public owner;\n    address public oracle;\n    address constant ethAddress = 0x0000000000000000000000000000000000000000;\n    uint constant oneEUR = 1000000000000000000;\n\n\n    event OracleUpdated(address oracle) ;\n    event EmployeeAdded(address accountAddress, address[] allowedTokens, uint initialYearlyEURSalary);\n    event SalaryUpdated(uint employeeId, uint salary);\n    event EmployeeRemoved(uint employeeId);\n    event FundsDrained();\n    event FundsAdded(uint amount);\n    event TokenFundsAdded(address token, uint amount);\n    event EmployeeAllowedTokensUpdated(uint employeeId, address[] tokens);\n    event AllEmployeeAllowedTokensUpdated(address[] tokens);\n\n    event AllocationUpdated(address user, address[] tokens, uint[] percentages);\n    event Payday(address user, address[] tokens, uint[] amounts);\n\n    event ExchangeRatesUpdated(address[] tokens, uint[] rates);\n    event ExchangeRateUpdated(address token, uint rate);\n\n\n    /**\n     * creates a new payroll contract\n     */\n    function Payroll() public {\n        owner = msg.sender;\n    }\n\n    //employee struct\n    struct Employee {\n        address accountAddress;\n        address[] allowedTokens;\n        uint256 yearlyEURSalary;\n    }\n\n    //access modifiers for owner, employee, and oracle\n    modifier onlyOwner { require(msg.sender == owner); _; }\n    modifier onlyOracle { require(msg.sender == oracle); _; }\n    modifier onlyEmployee { require(employeeAddressToId[msg.sender] != 0 && employees[employeeAddressToId[msg.sender]-1].yearlyEURSalary != 0); _; }\n\n    //employee info\n    Employee[] public employees;\n\n    //token info\n    address[] public tokens;\n    mapping(address => uint) public employeeAddressToId;\n    mapping(address => bool) public tokenDeposited;\n    mapping(address => uint) public EURExchangeRates;\n\n    //employee token distribution info\n    mapping(address => uint) public lastAllocationUpdate;\n    mapping(address => uint) public lastPayday;\n    mapping(address => address[]) public distributionsTokens;\n    mapping(address => uint256[]) public distributions;\n    mapping(address => mapping(address => uint256)) public distributionsMapping;\n\n    /*------------------------------------------------------------------------*/\n    /*--- OWNER ONLY ---------------------------------------------------------*/\n    /*------------------------------------------------------------------------*/\n\n    /**\n     * update oracle\n     * @param newOracle change which address can update token exchange rates\n     */\n    function setOracle(address newOracle) public onlyOwner {\n        oracle = newOracle;\n\n        emit OracleUpdated(oracle);\n    }\n\n    /**\n     * add an employee\n     * @param accountAddress employee's ethereum account address\n     * @param allowedTokens initial tokens they are allowed to specify in their salary allocations\n     * @param initialYearlyEURSalary initial salary in EUR with 18 decimals\n     */\n    function addEmployee(address accountAddress, address[] allowedTokens, uint256 initialYearlyEURSalary) public onlyOwner {\n\n        require(employeeAddressToId[accountAddress] == 0);\n\n        employees.push(Employee(\n                accountAddress,\n                allowedTokens,\n                initialYearlyEURSalary\n            ));\n\n        employeeAddressToId[accountAddress] = employees.length;\n\n        emit EmployeeAdded(accountAddress, allowedTokens, initialYearlyEURSalary);\n    }\n\n    /**\n     * set employee yearly salary\n     * @param employeeId id of employee\n     * @param yearlyEURSalary yearly salary in EUR with 18 decimals\n     */\n    function setEmployeeSalary(uint256 employeeId, uint256 yearlyEURSalary) public onlyOwner {\n        require(employeeId != 0);\n        employees[employeeId-1].yearlyEURSalary = yearlyEURSalary;\n\n        emit SalaryUpdated(employeeId, yearlyEURSalary);\n    }\n\n    /**\n     * set allowed tokens for one employee\n     * @param employeeId employee id\n     * @param allowedTokens list of token addresses the employee is allowed to allocate for\n     */\n    function setEmployeeAllowedTokens(uint employeeId, address[] allowedTokens) public onlyOwner {\n        require(employeeId != 0);\n        Employee storage employee = employees[employeeId-1];\n        employee.allowedTokens = allowedTokens;\n\n        emit EmployeeAllowedTokensUpdated(employeeId, allowedTokens);\n    }\n\n    /**\n     * updates all employees' allowed tokens to provided tokens\n     * @param allowedTokens list of token addresses to overwrite all employees' allowedTokens\n     */\n    function setEmployeeAllowedTokensForAll(address[] allowedTokens) public onlyOwner {\n        for(uint i = 0; i<employees.length; i++){\n            Employee storage employee = employees[i];\n            employee.allowedTokens = allowedTokens;\n        }\n\n        emit AllEmployeeAllowedTokensUpdated(allowedTokens);\n    }\n\n    /**\n     * allows all employees to allocate tokens that are currently deposited,\n     */\n    function setEmployeeAllowedTokensToDeposited() public onlyOwner {\n        for(uint i = 0; i<employees.length; i++){\n            Employee storage employee = employees[i];\n            employee.allowedTokens = tokens;\n        }\n\n        emit AllEmployeeAllowedTokensUpdated(tokens);\n    }\n\n    /**\n     * remove employee\n     * @param employeeId 1-indexed employee id, first employee has id:1\n     */\n    function removeEmployee(uint256 employeeId) public onlyOwner {\n        require(employeeId != 0);\n        employeeAddressToId[employees[employeeId-1].accountAddress] = 0;\n        delete employees[employeeId-1];\n\n        emit EmployeeRemoved(employeeId);\n    }\n\n    /**\n     * deposit ETH to the contract\n     * msg.value: the amount of ETH to deposit\n     */\n    function addFunds() public onlyOwner payable {\n        require(msg.value > 0);\n\n        if(!tokenDeposited[ethAddress]){\n            tokens.push(ethAddress);\n            tokenDeposited[ethAddress] = true;\n        }\n\n        emit FundsAdded(msg.value);\n    }\n\n    /**\n     * deposit a token to the contract\n     * @param token token address\n     * @param amount of token to deposit, must be approved for allowance first\n     */\n    function addTokenFunds(address token, uint256 amount) public onlyOwner {\n        require(amount > 0);\n\n        ERC20(token).transferFrom(msg.sender, this, amount);\n\n        //if not registered yet, add to list of tokens deposited\n        if(!tokenDeposited[token]){\n            tokens.push(token);\n            tokenDeposited[token] = true;\n        }\n\n        emit TokenFundsAdded(token, amount);\n    }\n\n    /**\n     * returns all tokens and ETH to the owner\n     */\n    function scapeHatch() public onlyOwner {\n        //transfer back all the ETH to the owner\n        owner.transfer(address(this).balance);\n        delete tokenDeposited[ethAddress];\n\n        //transfer back all the tokens to the owner and unregister them\n        for(uint i = 0; i<tokens.length; i++){\n            address token = tokens[i];\n            ERC20 erc20 = ERC20(token);\n            erc20.transfer(owner, erc20.balanceOf(this));\n            delete tokenDeposited[token];\n        }\n        delete tokens;\n\n        emit FundsDrained();\n    }\n\n    /**\n     * gets employee count\n     */\n    function getEmployeeCount() public constant returns (uint256){\n        return employees.length;\n    }\n\n    /**\n     * get active employee count\n     */\n    function getActiveEmployeeCount() public constant returns (uint256) {\n        uint result = 0;\n        for(uint i = 0; i<employees.length; i++){\n            if(employees[i].accountAddress != address(0)) result++;\n        }\n        return result;\n    }\n\n    /**\n     * Get contents of Employee struct\n     * @param employeeId employee index starting at 1\n     */\n    function getEmployee(uint256 employeeId) public constant\n    returns (address accountAddress, address[] allowedTokens, uint yearlyEURSalary)\n    {\n        Employee storage employee = employees[employeeId-1];\n\n        return (employee.accountAddress, employee.allowedTokens, employee.yearlyEURSalary);\n    }\n\n    /**\n     * returns Monthly EUR amount spent in salaries\n     */\n    function calculatePayrollBurnrate() public constant returns (uint256){\n        uint totalMonthlyEUR = 0;\n\n        for(uint i = 0; i<employees.length; i++){\n            uint montlyEURSalaryForEmployee = employees[i].yearlyEURSalary.div(12);\n            totalMonthlyEUR = totalMonthlyEUR.add(montlyEURSalaryForEmployee);\n        }\n\n        return totalMonthlyEUR;\n    }\n\n    /**\n     * Days until the contract can run out of funds for at least 1 token\n     * returns token address and runway in days of token soonest to run out\n     */\n    function calculatePayrollRunway() public constant returns (address, uint256) {\n        return calculateMinimumTokenRunway(calculateBurnratesForTokens());\n    }\n\n    /**\n     * returns array of daily burn rates for each token in same order as this.tokens\n     */\n    function calculateBurnratesForTokens() public view returns (uint[] memory) {\n        uint[] memory dailyTokenBurnrates = new uint[](tokens.length);\n\n        for(uint t = 0; t<tokens.length; t++){\n            address token = tokens[t];\n            uint tokenAmountRequired = 0;\n\n            uint tokenExchangeRate = EURExchangeRates[token];\n\n            if(tokenExchangeRate == 0) continue;\n\n            ERC20 erc20 = ERC20(token);\n            uint decimals = uint(erc20.decimals());\n\n            for(uint i = 0; i<employees.length; i++){\n                Employee storage employee = employees[i];\n                uint percentage = distributionsMapping[employee.accountAddress][token];\n\n                //if user didn't allocate anything for this token, skip it\n                //if(percentage == 0) continue;\n\n                //calculate daily payment to this user in the token\n                uint dailyEUR = employee.yearlyEURSalary.div(365);\n                uint EURAllocatedForToken = (dailyEUR.mul(percentage)).div(100);\n                uint dailyTokenAmount = EURAllocatedForToken.div( tokenExchangeRate ).mul( 10 ** decimals ); //.mul(oneEUR.div(tokenExchangeRate);\n\n\n\n                //add token daily amount for this user to total daily token burn rate\n                tokenAmountRequired = tokenAmountRequired.add(dailyTokenAmount);\n            }\n\n            //store the daily burn rate for the token at same index as token in this.tokens\n            dailyTokenBurnrates[t] = tokenAmountRequired;\n        }\n\n        return dailyTokenBurnrates;\n    }\n\n    /**\n     * @param dailyTokenBurnrates array of daily burn rates for each token in same order as this.tokens\n     */\n    function calculateMinimumTokenRunway(uint[] dailyTokenBurnrates) internal view returns(address, uint) {\n        uint minimumTokenRunway = 0;\n        address minimumRunwayToken = address(0);\n\n        for(uint s = 0; s<tokens.length; s++){\n            if(dailyTokenBurnrates[s] == 0) continue;\n\n            address token = tokens[s];\n            uint availableBalance = (token == ethAddress) ? address(this).balance : ERC20(token).balanceOf(this);\n            uint runwayForToken = availableBalance.div(dailyTokenBurnrates[s]);\n\n            if(minimumTokenRunway == 0 || runwayForToken < minimumTokenRunway){\n                minimumTokenRunway = runwayForToken;\n                minimumRunwayToken = token;\n            }\n        }\n\n        return (minimumRunwayToken, minimumTokenRunway);\n    }\n\n\n    /*------------------------------------------------------------------------*/\n    /*--- EMPLOYEE ONLY ------------------------------------------------------*/\n    /*------------------------------------------------------------------------*/\n\n    /**\n     * gets token allocation of the caller\n     */\n    function getAllocation() public view returns (address[], uint[]){\n        return (distributionsTokens[msg.sender], distributions[msg.sender]);\n    }\n\n    /**\n     * gets allocation for an employee based on address\n     * @param _address address of employee\n     */\n    function getAllocationForAddress(address _address) public view returns (address[], uint[]){\n        return (distributionsTokens[_address], distributions[_address]);\n    }\n\n    /**\n     * gets allocation for an employeeId\n     * @param employeeId id of employee\n     */\n    function getAllocationForEmployee(uint employeeId) public view returns (address[], uint[]){\n        Employee storage employee = employees[employeeId-1];\n        address _address = employee.accountAddress;\n        return (distributionsTokens[_address], distributions[_address]);\n    }\n\n    /**\n     * updates employee's token distribution. only callable once every 6 months\n     * @param distributionTokens token addresses for alloactions\n     * @param distribution token percentages for allocations (1-100)\n     */\n    function determineAllocation(address[] distributionTokens, uint256[] distribution) public onlyEmployee {\n        require(distributionTokens.length == distribution.length);\n        //require(now - lastAllocationUpdate[msg.sender] < 6 * 30 days );\n\n        Employee storage employee = employees[employeeAddressToId[msg.sender]-1];\n\n        //check if all the tokens are allowed for the employee\n        for(uint i = 0; i<distributionTokens.length; i++){\n            require(tokenDeposited[distributionTokens[i]]);\n            bool tokenAllowed = false;\n            for(uint k = 0; k<employee.allowedTokens.length; k++){\n                if(distributionTokens[i] == employee.allowedTokens[k]) tokenAllowed = true;\n            }\n            require(tokenAllowed);\n            require(distribution[i] > 0 && distribution[i] <= 100);\n        }\n\n        //make sure percentage of distribution adds up to 100\n        uint totalPercent = 0;\n        for(uint j = 0; j<distribution.length; j++) totalPercent += distribution[j];\n        require(totalPercent == 100);\n\n        //update distribution info for the employee\n        lastAllocationUpdate[msg.sender] = now;\n        distributions[msg.sender] = distribution;\n        distributionsTokens[msg.sender] = distributionTokens;\n\n        for(uint d = 0; d<distribution.length; d++){\n            distributionsMapping[msg.sender][distributionTokens[d]] = distribution[d];\n        }\n\n        emit AllocationUpdated(msg.sender, distributionTokens, distribution);\n    }\n\n    /**\n     * Sends the employee all the tokens and ETH based on their yearly salary and allocations.\n     * Only callable once a month\n     */\n    function payday() public onlyEmployee {\n\n        require(employeeAddressToId[msg.sender] != 0);\n        //require(now - lastPayday[msg.sender] < 30 days);\n\n        Employee storage employee = employees[employeeAddressToId[msg.sender]-1];\n\n        require(employee.yearlyEURSalary != 0);\n\n        address[] storage distributionTokens = distributionsTokens[msg.sender];\n        uint[] storage distribution = distributions[msg.sender];\n\n        uint monthlyEUR = employee.yearlyEURSalary.div(12);\n\n        uint[] memory amountsTransferred = new uint[](distributionTokens.length);\n\n        for(uint i = 0; i<distributionTokens.length; i++){\n            address token = distributionTokens[i];\n\n            uint decimals = (token == ethAddress) ? 18 : uint(ERC20(token).decimals());\n\n            uint percentage = distribution[i];\n            uint tokenExchangeRate = EURExchangeRates[token];\n            uint EURAllocatedForToken = (monthlyEUR.mul(percentage)).div(100);\n            uint monthlyTokenAmount = EURAllocatedForToken.div(tokenExchangeRate).mul( 10 ** decimals );\n\n            if(token == ethAddress){\n                msg.sender.transfer(monthlyTokenAmount);\n            }else{\n                ERC20(token).transfer(msg.sender, monthlyTokenAmount);\n            }\n\n            amountsTransferred[i] = monthlyTokenAmount;\n        }\n\n        emit Payday(msg.sender, distributionTokens, amountsTransferred);\n    }\n\n    /*------------------------------------------------------------------------*/\n    /*--- ORACLE ONLY --------------------------------------------------------*/\n    /*------------------------------------------------------------------------*/\n\n    /**\n     * called by outside oracle service to set token exchange rate\n     * @param token token address\n     * @param EURExchangeRate the price of token in EUR, uses decimals from token\n     */\n    function setExchangeRate(address token, uint256 EURExchangeRate) public onlyOracle {\n        EURExchangeRates[token] = EURExchangeRate;\n\n        emit ExchangeRateUpdated(token, EURExchangeRate);\n    }\n\n    /**\n     * called by outside oracle service to set token exchange rates\n     * @param _tokens token address\n     * @param _EURExchangeRates the price of token in EUR, uses decimals from token\n     */\n    function setExchangeRates(address[] _tokens, uint256[] _EURExchangeRates) public onlyOracle {\n        require(_tokens.length > 0);\n        require(_tokens.length == _EURExchangeRates.length);\n\n        for(uint i = 0; i<_tokens.length; i++){\n            EURExchangeRates[_tokens[i]] = _EURExchangeRates[i];\n        }\n\n        emit ExchangeRatesUpdated(_tokens, _EURExchangeRates);\n    }\n\n}",
  "sourcePath": "/Users/alex/Code/status_payroll/contracts/payroll.sol",
  "compiler": {
    "name": "solc",
    "version": "0.4.21+commit.dfe3193c.Emscripten.clang"
  },
  "schemaVersion": "2.0.0",
  "updatedAt": "2018-04-16T11:16:56.513Z"
}